{
  "transactions": [
    {
      "hash": "0x318ea48451e0d3eb31aec2e548941d3f92cba9a0b112c473e532c92a571364b0",
      "transactionType": "CALL",
      "contractName": null,
      "contractAddress": "0x779877a7b0d9e8603169ddbd7836e478b4624789",
      "function": "transferAndCall(address,uint256,bytes)",
      "arguments": [
        "0x9DdfaCa8183c41ad55329BdeeD9F6A8d53168B1B",
        "3000000000000000000",
        "0x2bd02163b37c30c0442f8c34e7ffd541cf6877395efe02c2da6aa62dd5b9ca76"
      ],
      "transaction": {
        "from": "0x81ad33cebf5f59f2e8e87e0179812e09ea4f6621",
        "to": "0x779877a7b0d9e8603169ddbd7836e478b4624789",
        "gas": "0x1c1ff",
        "value": "0x0",
        "input": "0x4000aea00000000000000000000000009ddfaca8183c41ad55329bdeed9f6a8d53168b1b00000000000000000000000000000000000000000000000029a2241af62c0000000000000000000000000000000000000000000000000000000000000000006000000000000000000000000000000000000000000000000000000000000000202bd02163b37c30c0442f8c34e7ffd541cf6877395efe02c2da6aa62dd5b9ca76",
        "nonce": "0x15",
        "chainId": "0xaa36a7"
      },
      "additionalContracts": [],
      "isFixedGasLimit": false
    }
  ],
  "receipts": [
    {
      "status": "0x1",
      "cumulativeGasUsed": "0xf09893",
      "logs": [
        {
          "address": "0x779877a7b0d9e8603169ddbd7836e478b4624789",
          "topics": [
            "0xddf252ad1be2c89b69c2b068fc378daa952ba7f163c4a11628f55a4df523b3ef",
            "0x00000000000000000000000081ad33cebf5f59f2e8e87e0179812e09ea4f6621",
            "0x0000000000000000000000009ddfaca8183c41ad55329bdeed9f6a8d53168b1b"
          ],
          "data": "0x00000000000000000000000000000000000000000000000029a2241af62c0000",
          "blockHash": "0xf925fd722d43bc6a8a233919cfca61d3c83d64c63c03df58d7eb825b2aa63f48",
          "blockNumber": "0x927e01",
          "blockTimestamp": "0x6911febc",
          "transactionHash": "0x318ea48451e0d3eb31aec2e548941d3f92cba9a0b112c473e532c92a571364b0",
          "transactionIndex": "0x3d",
          "logIndex": "0x7f",
          "removed": false
        },
        {
          "address": "0x779877a7b0d9e8603169ddbd7836e478b4624789",
          "topics": [
            "0xe19260aff97b920c7df27010903aeb9c8d2be5d310a2c67824cf3f15396e4c16",
            "0x00000000000000000000000081ad33cebf5f59f2e8e87e0179812e09ea4f6621",
            "0x0000000000000000000000009ddfaca8183c41ad55329bdeed9f6a8d53168b1b"
          ],
          "data": "0x00000000000000000000000000000000000000000000000029a2241af62c0000000000000000000000000000000000000000000000000000000000000000004000000000000000000000000000000000000000000000000000000000000000202bd02163b37c30c0442f8c34e7ffd541cf6877395efe02c2da6aa62dd5b9ca76",
          "blockHash": "0xf925fd722d43bc6a8a233919cfca61d3c83d64c63c03df58d7eb825b2aa63f48",
          "blockNumber": "0x927e01",
          "blockTimestamp": "0x6911febc",
          "transactionHash": "0x318ea48451e0d3eb31aec2e548941d3f92cba9a0b112c473e532c92a571364b0",
          "transactionIndex": "0x3d",
          "logIndex": "0x80",
          "removed": false
        },
        {
          "address": "0x9ddfaca8183c41ad55329bdeed9f6a8d53168b1b",
          "topics": [
            "0x1ced9348ff549fceab2ac57cd3a9de38edaaab274b725ee82c23e8fc8c4eec7a",
            "0x2bd02163b37c30c0442f8c34e7ffd541cf6877395efe02c2da6aa62dd5b9ca76"
          ],
          "data": "0x000000000000000000000000000000000000000000000000000000000000000000000000000000000000000000000000000000000000000029a2241af62c0000",
          "blockHash": "0xf925fd722d43bc6a8a233919cfca61d3c83d64c63c03df58d7eb825b2aa63f48",
          "blockNumber": "0x927e01",
          "blockTimestamp": "0x6911febc",
          "transactionHash": "0x318ea48451e0d3eb31aec2e548941d3f92cba9a0b112c473e532c92a571364b0",
          "transactionIndex": "0x3d",
          "logIndex": "0x81",
          "removed": false
        }
      ],
      "logsBloom": "0x00000004000000000000000000000000000000000020000000000000020000000000000000000000000000000020100000000000000000000000000000000000000000000000000000020008000000000000000000000000000020000020000008000000000000000000000000000000000000000000000000000010000040000000000000000000000000010000800000000020000000000000000800000000000000000000000000000000010000000000020000000000000004000000000000000002000000000000000000000000000000000000000100000000000000000010000000020000800000000000000000000000000000000000000000000000",
      "type": "0x2",
      "transactionHash": "0x318ea48451e0d3eb31aec2e548941d3f92cba9a0b112c473e532c92a571364b0",
      "transactionIndex": "0x3d",
      "blockHash": "0xf925fd722d43bc6a8a233919cfca61d3c83d64c63c03df58d7eb825b2aa63f48",
      "blockNumber": "0x927e01",
      "gasUsed": "0x133b1",
      "effectiveGasPrice": "0xf4253",
      "from": "0x81ad33cebf5f59f2e8e87e0179812e09ea4f6621",
      "to": "0x779877a7b0d9e8603169ddbd7836e478b4624789",
      "contractAddress": null
    }
  ],
  "libraries": [],
  "pending": [],
  "returns": {},
  "timestamp": 1762787005040,
  "chain": 11155111,
  "commit": "ccd715a"
}